{
  "address": "0x4f361a3b293130E1c13A7B780eb49764a6F7B7DB",
  "abi": [
    {
      "inputs": [
        {
          "internalType": "uint256",
          "name": "_settlementDuration",
          "type": "uint256"
        },
        {
          "internalType": "contract IEAS",
          "name": "_eas",
          "type": "address"
        }
      ],
      "stateMutability": "payable",
      "type": "constructor"
    },
    {
      "inputs": [],
      "name": "AccessDenied",
      "type": "error"
    },
    {
      "inputs": [],
      "name": "InsufficientValue",
      "type": "error"
    },
    {
      "inputs": [],
      "name": "InvalidEAS",
      "type": "error"
    },
    {
      "inputs": [],
      "name": "InvalidLength",
      "type": "error"
    },
    {
      "inputs": [],
      "name": "NotPayable",
      "type": "error"
    },
    {
      "anonymous": false,
      "inputs": [
        {
          "indexed": false,
          "internalType": "uint256",
          "name": "shipmentId",
          "type": "uint256"
        },
        {
          "indexed": false,
          "internalType": "address",
          "name": "courier",
          "type": "address"
        }
      ],
      "name": "ShipmentCompleted",
      "type": "event"
    },
    {
      "anonymous": false,
      "inputs": [
        {
          "indexed": false,
          "internalType": "uint256",
          "name": "shipmentId",
          "type": "uint256"
        },
        {
          "indexed": false,
          "internalType": "address",
          "name": "courier",
          "type": "address"
        }
      ],
      "name": "ShipmentDelivered",
      "type": "event"
    },
    {
      "anonymous": false,
      "inputs": [
        {
          "indexed": false,
          "internalType": "uint256",
          "name": "shipmentId",
          "type": "uint256"
        },
        {
          "indexed": false,
          "internalType": "address",
          "name": "courier",
          "type": "address"
        }
      ],
      "name": "ShipmentPickedUp",
      "type": "event"
    },
    {
      "anonymous": false,
      "inputs": [
        {
          "indexed": false,
          "internalType": "uint256",
          "name": "shipmentId",
          "type": "uint256"
        },
        {
          "indexed": false,
          "internalType": "address",
          "name": "sender",
          "type": "address"
        },
        {
          "indexed": false,
          "internalType": "address",
          "name": "receiver",
          "type": "address"
        },
        {
          "indexed": false,
          "internalType": "uint256",
          "name": "deadline",
          "type": "uint256"
        },
        {
          "indexed": false,
          "internalType": "uint256",
          "name": "bounty",
          "type": "uint256"
        }
      ],
      "name": "ShipmentRequested",
      "type": "event"
    },
    {
      "inputs": [
        {
          "components": [
            {
              "internalType": "bytes32",
              "name": "uid",
              "type": "bytes32"
            },
            {
              "internalType": "bytes32",
              "name": "schema",
              "type": "bytes32"
            },
            {
              "internalType": "uint64",
              "name": "time",
              "type": "uint64"
            },
            {
              "internalType": "uint64",
              "name": "expirationTime",
              "type": "uint64"
            },
            {
              "internalType": "uint64",
              "name": "revocationTime",
              "type": "uint64"
            },
            {
              "internalType": "bytes32",
              "name": "refUID",
              "type": "bytes32"
            },
            {
              "internalType": "address",
              "name": "recipient",
              "type": "address"
            },
            {
              "internalType": "address",
              "name": "attester",
              "type": "address"
            },
            {
              "internalType": "bool",
              "name": "revocable",
              "type": "bool"
            },
            {
              "internalType": "bytes",
              "name": "data",
              "type": "bytes"
            }
          ],
          "internalType": "struct Attestation",
          "name": "attestation",
          "type": "tuple"
        }
      ],
      "name": "attest",
      "outputs": [
        {
          "internalType": "bool",
          "name": "",
          "type": "bool"
        }
      ],
      "stateMutability": "payable",
      "type": "function"
    },
    {
      "inputs": [
        {
          "internalType": "uint256",
          "name": "_shipmentId",
          "type": "uint256"
        }
      ],
      "name": "completeShipment",
      "outputs": [],
      "stateMutability": "payable",
      "type": "function"
    },
    {
      "inputs": [],
      "name": "currentId",
      "outputs": [
        {
          "internalType": "uint256",
          "name": "",
          "type": "uint256"
        }
      ],
      "stateMutability": "view",
      "type": "function"
    },
    {
      "inputs": [
        {
          "internalType": "uint256",
          "name": "_shipmentId",
          "type": "uint256"
        }
      ],
      "name": "deliverShipment",
      "outputs": [],
      "stateMutability": "payable",
      "type": "function"
    },
    {
      "inputs": [
        {
          "internalType": "uint256",
          "name": "_shipmentId",
          "type": "uint256"
        }
      ],
      "name": "disburse",
      "outputs": [],
      "stateMutability": "nonpayable",
      "type": "function"
    },
    {
      "inputs": [
        {
          "internalType": "uint256",
          "name": "_shipmentId",
          "type": "uint256"
        },
        {
          "internalType": "address",
          "name": "disputer",
          "type": "address"
        }
      ],
      "name": "dispute",
      "outputs": [],
      "stateMutability": "nonpayable",
      "type": "function"
    },
    {
      "inputs": [
        {
          "internalType": "uint256",
          "name": "",
          "type": "uint256"
        }
      ],
      "name": "fulfilledShipments",
      "outputs": [
        {
          "internalType": "bool",
          "name": "",
          "type": "bool"
        }
      ],
      "stateMutability": "view",
      "type": "function"
    },
    {
      "inputs": [],
      "name": "isPayable",
      "outputs": [
        {
          "internalType": "bool",
          "name": "",
          "type": "bool"
        }
      ],
      "stateMutability": "pure",
      "type": "function"
    },
    {
      "inputs": [
        {
          "components": [
            {
              "internalType": "bytes32",
              "name": "uid",
              "type": "bytes32"
            },
            {
              "internalType": "bytes32",
              "name": "schema",
              "type": "bytes32"
            },
            {
              "internalType": "uint64",
              "name": "time",
              "type": "uint64"
            },
            {
              "internalType": "uint64",
              "name": "expirationTime",
              "type": "uint64"
            },
            {
              "internalType": "uint64",
              "name": "revocationTime",
              "type": "uint64"
            },
            {
              "internalType": "bytes32",
              "name": "refUID",
              "type": "bytes32"
            },
            {
              "internalType": "address",
              "name": "recipient",
              "type": "address"
            },
            {
              "internalType": "address",
              "name": "attester",
              "type": "address"
            },
            {
              "internalType": "bool",
              "name": "revocable",
              "type": "bool"
            },
            {
              "internalType": "bytes",
              "name": "data",
              "type": "bytes"
            }
          ],
          "internalType": "struct Attestation[]",
          "name": "attestations",
          "type": "tuple[]"
        },
        {
          "internalType": "uint256[]",
          "name": "values",
          "type": "uint256[]"
        }
      ],
      "name": "multiAttest",
      "outputs": [
        {
          "internalType": "bool",
          "name": "",
          "type": "bool"
        }
      ],
      "stateMutability": "payable",
      "type": "function"
    },
    {
      "inputs": [
        {
          "components": [
            {
              "internalType": "bytes32",
              "name": "uid",
              "type": "bytes32"
            },
            {
              "internalType": "bytes32",
              "name": "schema",
              "type": "bytes32"
            },
            {
              "internalType": "uint64",
              "name": "time",
              "type": "uint64"
            },
            {
              "internalType": "uint64",
              "name": "expirationTime",
              "type": "uint64"
            },
            {
              "internalType": "uint64",
              "name": "revocationTime",
              "type": "uint64"
            },
            {
              "internalType": "bytes32",
              "name": "refUID",
              "type": "bytes32"
            },
            {
              "internalType": "address",
              "name": "recipient",
              "type": "address"
            },
            {
              "internalType": "address",
              "name": "attester",
              "type": "address"
            },
            {
              "internalType": "bool",
              "name": "revocable",
              "type": "bool"
            },
            {
              "internalType": "bytes",
              "name": "data",
              "type": "bytes"
            }
          ],
          "internalType": "struct Attestation[]",
          "name": "attestations",
          "type": "tuple[]"
        },
        {
          "internalType": "uint256[]",
          "name": "values",
          "type": "uint256[]"
        }
      ],
      "name": "multiRevoke",
      "outputs": [
        {
          "internalType": "bool",
          "name": "",
          "type": "bool"
        }
      ],
      "stateMutability": "payable",
      "type": "function"
    },
    {
      "inputs": [
        {
          "internalType": "uint256",
          "name": "",
          "type": "uint256"
        }
      ],
      "name": "pickedUpShipments",
      "outputs": [
        {
          "internalType": "bool",
          "name": "",
          "type": "bool"
        }
      ],
      "stateMutability": "view",
      "type": "function"
    },
    {
      "inputs": [
        {
          "components": [
            {
              "internalType": "uint256",
              "name": "bounty",
              "type": "uint256"
            },
            {
              "internalType": "uint256",
              "name": "packageValue",
              "type": "uint256"
            },
            {
              "internalType": "address",
              "name": "sender",
              "type": "address"
            },
            {
              "internalType": "address",
              "name": "receiver",
              "type": "address"
            }
          ],
          "internalType": "struct DeDe.ShipmentRequestedParams",
          "name": "request",
          "type": "tuple"
        }
      ],
      "name": "requestShipment",
      "outputs": [],
      "stateMutability": "payable",
      "type": "function"
    },
    {
      "inputs": [
        {
          "components": [
            {
              "internalType": "bytes32",
              "name": "uid",
              "type": "bytes32"
            },
            {
              "internalType": "bytes32",
              "name": "schema",
              "type": "bytes32"
            },
            {
              "internalType": "uint64",
              "name": "time",
              "type": "uint64"
            },
            {
              "internalType": "uint64",
              "name": "expirationTime",
              "type": "uint64"
            },
            {
              "internalType": "uint64",
              "name": "revocationTime",
              "type": "uint64"
            },
            {
              "internalType": "bytes32",
              "name": "refUID",
              "type": "bytes32"
            },
            {
              "internalType": "address",
              "name": "recipient",
              "type": "address"
            },
            {
              "internalType": "address",
              "name": "attester",
              "type": "address"
            },
            {
              "internalType": "bool",
              "name": "revocable",
              "type": "bool"
            },
            {
              "internalType": "bytes",
              "name": "data",
              "type": "bytes"
            }
          ],
          "internalType": "struct Attestation",
          "name": "attestation",
          "type": "tuple"
        }
      ],
      "name": "revoke",
      "outputs": [
        {
          "internalType": "bool",
          "name": "",
          "type": "bool"
        }
      ],
      "stateMutability": "payable",
      "type": "function"
    },
    {
      "inputs": [
        {
          "internalType": "uint256",
          "name": "_shipmentId",
          "type": "uint256"
        }
      ],
      "name": "settle",
      "outputs": [],
      "stateMutability": "nonpayable",
      "type": "function"
    },
    {
      "inputs": [],
      "name": "settlementDuration",
      "outputs": [
        {
          "internalType": "uint256",
          "name": "",
          "type": "uint256"
        }
      ],
      "stateMutability": "view",
      "type": "function"
    },
    {
      "inputs": [
        {
          "internalType": "uint256",
          "name": "",
          "type": "uint256"
        }
      ],
      "name": "shipments",
      "outputs": [
        {
          "internalType": "uint256",
          "name": "id",
          "type": "uint256"
        },
        {
          "internalType": "enum DeDe.ShipmentState",
          "name": "state",
          "type": "uint8"
        },
        {
          "internalType": "uint256",
          "name": "bounty",
          "type": "uint256"
        },
        {
          "internalType": "uint256",
          "name": "settlementDeadline",
          "type": "uint256"
        },
        {
          "internalType": "address",
          "name": "courier",
          "type": "address"
        },
        {
          "internalType": "address",
          "name": "sender",
          "type": "address"
        },
        {
          "internalType": "address",
          "name": "receiver",
          "type": "address"
        },
        {
          "internalType": "bool",
          "name": "valid",
          "type": "bool"
        }
      ],
      "stateMutability": "view",
      "type": "function"
    },
    {
      "inputs": [],
      "name": "version",
      "outputs": [
        {
          "internalType": "string",
          "name": "",
          "type": "string"
        }
      ],
      "stateMutability": "view",
      "type": "function"
    },
    {
      "inputs": [],
      "name": "withdraw",
      "outputs": [],
      "stateMutability": "nonpayable",
      "type": "function"
    },
    {
      "inputs": [
        {
          "internalType": "address",
          "name": "",
          "type": "address"
        }
      ],
      "name": "withdrawableBalance",
      "outputs": [
        {
          "internalType": "uint256",
          "name": "",
          "type": "uint256"
        }
      ],
      "stateMutability": "view",
      "type": "function"
    },
    {
      "stateMutability": "payable",
      "type": "receive"
    }
  ],
  "transactionHash": "0xf63204956c01e9d367b5550dd0720e00b6513bef49a509006d9b31be5601cea1",
  "args": [
    0,
    "0xC2679fBD37d54388Ce493F1DB75320D236e1815e"
  ],
  "numDeployments": 1,
  "solcInputHash": "a2791e936a09fa31215aae0883f6da1d",
  "bytecode": "0x610100604052604051611dab380380611dab83398101604081905261002391610088565b6001608052600360a052600060c052806001600160a01b03811661005a576040516341bc07ff60e11b815260040160405180910390fd5b6001600160a01b0390811660e052600192909255600080546001600160a01b031916919092161790556100c5565b6000806040838503121561009b57600080fd5b825160208401519092506001600160a01b03811681146100ba57600080fd5b809150509250929050565b60805160a05160c05160e051611cad6100fe600039600061135b015260006104cd015260006104a40152600061047b0152611cad6000f3fe6080604052600436106101185760003560e01c806391db0b7e116100a0578063e00dd16111610064578063e00dd16114610370578063e0d5166414610386578063e49617e114610399578063e60c3505146103ac578063f15456b5146103bf57600080fd5b806391db0b7e146102f7578063a0f5ceb01461030a578063a765fbea1461031d578063bd77ac2c1461033c578063ce46e0461461035c57600080fd5b806354fd4d50116100e757806354fd4d501461025c578063576922131461027e5780637943a4e71461029457806388e5b2d9146102c45780638df82800146102d757600080fd5b806302b629381461013d5780631a9dcb351461017d5780632ac08a93146101bd5780633ccfd60b1461024757600080fd5b3661013857604051631574f9f360e01b815260040160405180910390fd5b005b600080fd5b34801561014957600080fd5b5061016a6101583660046116ac565b60066020526000908152604090205481565b6040519081526020015b60405180910390f35b34801561018957600080fd5b506101ad6101983660046116ce565b60056020526000908152604090205460ff1681565b6040519015158152602001610174565b3480156101c957600080fd5b506102336101d83660046116ce565b60036020819052600091825260409091208054600182015460028301549383015460048401546005850154600690950154939560ff93841695909492936001600160a01b039283169391831692821691600160a01b90041688565b6040516101749897969594939291906116fd565b34801561025357600080fd5b506101366103d2565b34801561026857600080fd5b50610271610474565b60405161017491906117b6565b34801561028a57600080fd5b5061016a60015481565b3480156102a057600080fd5b506101ad6102af3660046116ce565b60046020526000908152604090205460ff1681565b6101ad6102d2366004611815565b610517565b3480156102e357600080fd5b506101366102f23660046116ce565b6105e6565b6101ad610305366004611815565b61089a565b610136610318366004611897565b610959565b34801561032957600080fd5b50610136610338366004611916565b5050565b34801561034857600080fd5b506101366103573660046116ce565b610c9a565b34801561036857600080fd5b5060006101ad565b34801561037c57600080fd5b5061016a60025481565b6101366103943660046116ce565b610f85565b6101ad6103a7366004611942565b6110f5565b6101ad6103ba366004611942565b611111565b6101366103cd3660046116ce565b611125565b336000908152600660205260409020546104335760405162461bcd60e51b815260206004820152601760248201527f4e6f20776974686472617761626c652062616c616e636500000000000000000060448201526064015b60405180910390fd5b33600081815260066020526040808220805490839055905190929183156108fc02918491818181858888f19350505050158015610338573d6000803e3d6000fd5b606061049f7f00000000000000000000000000000000000000000000000000000000000000006112bd565b6104c87f00000000000000000000000000000000000000000000000000000000000000006112bd565b6104f17f00000000000000000000000000000000000000000000000000000000000000006112bd565b6040516020016105039392919061197e565b604051602081830303815290604052905090565b6000610521611350565b838281146105425760405163251f56a160e21b815260040160405180910390fd5b3460005b828110156105d6576000868683818110610562576105626119d8565b9050602002013590508281111561058c5760405163044044a560e21b815260040160405180910390fd5b6105b98989848181106105a1576105a16119d8565b90506020028101906105b391906119ee565b8261139b565b6105ca5760009450505050506105de565b90910390600101610546565b506001925050505b949350505050565b600081815260036020908152604080832081516101008101909252805482526001810154919290919083019060ff166004811115610626576106266116e7565b6004811115610637576106376116e7565b8152600282015460208201526003820154604082015260048201546001600160a01b03908116606083015260058301548116608083015260069092015491821660a0820152600160a01b90910460ff16151560c09091015260e08101519091506001901515146106b95760405162461bcd60e51b815260040161042a90611a0f565b438160600151111561070d5760405162461bcd60e51b815260206004820152601860248201527f536869706d656e7420686173206e6f7420657870697265640000000000000000604482015260640161042a565b600060e082018190528281526003602090815260409091208251815590820151600182810180548594939260ff1990911690836004811115610751576107516116e7565b021790555060408281015160028301556060830151600383015560808301516004830180546001600160a01b039283166001600160a01b03199182161790915560a085015160058086018054928516929093169190911790915560c08501516006909401805460e0909601511515600160a01b026001600160a81b03199096169490921693909317939093179092556000848152602091909152205460ff161561082d5760408082015160808301516001600160a01b031660009081526006602052918220805491929091610827908490611a54565b90915550505b60008281526004602052604090205460ff16801561085a575060008281526005602052604090205460ff16155b156103385760408082015160a08301516001600160a01b031660009081526006602052918220805491929091610891908490611a54565b90915550505050565b60006108a4611350565b838281146108c55760405163251f56a160e21b815260040160405180910390fd5b3460005b828110156105d65760008686838181106108e5576108e56119d8565b9050602002013590508281111561090f5760405163044044a560e21b815260040160405180910390fd5b61093c898984818110610924576109246119d8565b905060200281019061093691906119ee565b826113a4565b61094d5760009450505050506105de565b909103906001016108c9565b80513410156109aa5760405162461bcd60e51b815260206004820152601a60248201527f536869706d656e7420636f737420696e73756666696369656e74000000000000604482015260640161042a565b600280549060006109ba83611a67565b91905055506000600282602001516109d29190611a80565b905060006040518061010001604052806002548152602001600060048111156109fd576109fd6116e7565b81526020018460000151815260200160015442610a1a9190611a54565b815260200160006001600160a01b0316815260200184604001516001600160a01b0316815260200184606001516001600160a01b03168152602001600115158152509050806003600060025481526020019081526020016000206000820151816000015560208201518160010160006101000a81548160ff02191690836004811115610aa857610aa86116e7565b0217905550604082810151600280840191909155606080850151600385015560808501516004850180546001600160a01b039283166001600160a01b03199182161790915560a08701516005870180549184169190921617905560c08601516006909501805460e0909701511515600160a01b026001600160a81b03199097169590911694909417949094179092559054908501519185015185516001547f22e37630b11fea152d89ae822dbde78b0feaa2589d1d7e1e2a1e93db6b25f18894929190610b759042611a54565b604080519586526001600160a01b03948516602087015292909316918401919091526060830152608082015260a00160405180910390a1600080546040805180820182526007548152815160c0810183528481526020808201869052600182850152606080830187905284518a51818401528a830151818701528a8601516001600160a01b0390811682840152918b0151821660808083019190915286518083038201815260a0928301885290850152830196909652820152905163f17325e760e01b8152929091169163f17325e791610c5191600401611aa2565b6020604051808303816000875af1158015610c70573d6000803e3d6000fd5b505050506040513d601f19601f82011682018060405250810190610c949190611b25565b50505050565b60008181526004602052604090205460ff161515600114610cfd5760405162461bcd60e51b815260206004820152601960248201527f536869706d656e74206973206e6f74207069636b656420757000000000000000604482015260640161042a565b60008181526005602052604090205460ff161515600114610d605760405162461bcd60e51b815260206004820152601960248201527f536869706d656e74206973206e6f742066756c66696c6c656400000000000000604482015260640161042a565b600081815260036020908152604080832081516101008101909252805482526001810154919290919083019060ff166004811115610da057610da06116e7565b6004811115610db157610db16116e7565b8152600282015460208201526003820154604082015260048201546001600160a01b03908116606083015260058301548116608083015260069092015491821660a0820152600160a01b90910460ff16151560c09091015260e0810151909150600190151514610e335760405162461bcd60e51b815260040161042a90611a0f565b60c08101516001600160a01b03163314610e8f5760405162461bcd60e51b815260206004820152601a60248201527f43616c6c6572206973206e6f7420746865207265636569766572000000000000604482015260640161042a565b600060e082018190528281526003602090815260409091208251815590820151600182810180548594939260ff1990911690836004811115610ed357610ed36116e7565b02179055506040828101516002830155606083015160038301556080808401516004840180546001600160a01b039283166001600160a01b03199182161790915560a08601516005860180549184169190921617905560c08501516006948501805460e0909701511515600160a01b026001600160a81b031990971691831691909117959095179094558482015190850151909316600090815260209290925281208054909190610891908490611a54565b60008181526003602052604090206006810154600160a01b900460ff161515600114610fc35760405162461bcd60e51b815260040161042a90611a0f565b60018082015460ff166004811115610fdd57610fdd6116e7565b14610ffa5760405162461bcd60e51b815260040161042a90611b3e565b4381600301541161101d5760405162461bcd60e51b815260040161042a90611b81565b60048101546001600160a01b031633146110795760405162461bcd60e51b815260206004820152601960248201527f53656e646572206973206e6f742074686520636f757269657200000000000000604482015260640161042a565b600082815260056020908152604091829020805460ff199081166001908117909255600485015491850180549091166002179055825185815233928101929092526001600160a01b0316917fbf7b34fcfb0fa3cde7bd3ce969eaf623d71024a06634fb384b78c1cac6c7eaac91015b60405180910390a1505050565b60006110ff611350565b611109823461139b565b90505b919050565b600061111b611350565b61110982346113a4565b60008181526003602052604090206006810154600160a01b900460ff1615156001146111635760405162461bcd60e51b815260040161042a90611a0f565b6002600182015460ff16600481111561117e5761117e6116e7565b146111cb5760405162461bcd60e51b815260206004820152601d60248201527f536869706d656e74206973206e6f74207965742064656c697665726564000000604482015260640161042a565b438160030154116111ee5760405162461bcd60e51b815260040161042a90611b81565b60068101546001600160a01b0316331461124a5760405162461bcd60e51b815260206004820152601a60248201527f53656e646572206973206e6f7420746865207265636569766572000000000000604482015260640161042a565b600082815260056020908152604091829020805460ff199081166001908117909255600485015491850180549091166002179055825185815233928101929092526001600160a01b0316917f537363b9a51fea93bd842ffdb00c866c81120a6ce2f76037c732ea4d6592b76291016110e8565b606060006112ca836114a4565b600101905060008167ffffffffffffffff8111156112ea576112ea611881565b6040519080825280601f01601f191660200182016040528015611314576020820181803683370190505b5090508181016020015b600019016f181899199a1a9b1b9c1cb0b131b232b360811b600a86061a8153600a850494508461131e57509392505050565b336001600160a01b037f0000000000000000000000000000000000000000000000000000000000000000161461139957604051634ca8886760e01b815260040160405180910390fd5b565b60015b92915050565b60006007548360200135036113e15760006113c3610120850185611baf565b8101906113d09190611897565b90506113db81610959565b5061149b565b60085483602001350361141a5760006113fe610120850185611baf565b81019061140b9190611c5b565b90506113db816000015161157c565b600954836020013503611453576000611437610120850185611baf565b8101906114449190611c5b565b90506113db8160000151610f85565b600a5460208401351461149b57600b5483602001350361149b57600061147d610120850185611baf565b81019061148a9190611c5b565b90506114998160000151611125565b505b50600192915050565b60008072184f03e93ff9f4daa797ed6e38ed64bf6a1f0160401b83106114e35772184f03e93ff9f4daa797ed6e38ed64bf6a1f0160401b830492506040015b6d04ee2d6d415b85acef8100000000831061150f576d04ee2d6d415b85acef8100000000830492506020015b662386f26fc10000831061152d57662386f26fc10000830492506010015b6305f5e1008310611545576305f5e100830492506008015b612710831061155957612710830492506004015b6064831061156b576064830492506002015b600a831061139e5760010192915050565b600081815260036020526040812090600182015460ff1660048111156115a4576115a46116e7565b146115c15760405162461bcd60e51b815260040161042a90611b3e565b6006810154600160a01b900460ff1615156001146115f15760405162461bcd60e51b815260040161042a90611a0f565b428160030154116116145760405162461bcd60e51b815260040161042a90611b81565b6000828152600460208190526040909120805460ff19908116600190811790925591830180546001600160a01b031916331790558281018054919290911682800217905550604080518381523360208201527f07ad9f5eac765497cb94cdac99aa0dc0d7cc27c93fb54b1c02a3d48adbb13139910160405180910390a15050565b80356001600160a01b038116811461110c57600080fd5b6000602082840312156116be57600080fd5b6116c782611695565b9392505050565b6000602082840312156116e057600080fd5b5035919050565b634e487b7160e01b600052602160045260246000fd5b88815261010081016005891061172357634e487b7160e01b600052602160045260246000fd5b6020820198909852604081019690965260608601949094526001600160a01b03928316608086015290821660a08501521660c0830152151560e090910152919050565b60005b83811015611781578181015183820152602001611769565b50506000910152565b600081518084526117a2816020860160208601611766565b601f01601f19169290920160200192915050565b6020815260006116c7602083018461178a565b60008083601f8401126117db57600080fd5b50813567ffffffffffffffff8111156117f357600080fd5b6020830191508360208260051b850101111561180e57600080fd5b9250929050565b6000806000806040858703121561182b57600080fd5b843567ffffffffffffffff8082111561184357600080fd5b61184f888389016117c9565b9096509450602087013591508082111561186857600080fd5b50611875878288016117c9565b95989497509550505050565b634e487b7160e01b600052604160045260246000fd5b6000608082840312156118a957600080fd5b6040516080810181811067ffffffffffffffff821117156118da57634e487b7160e01b600052604160045260246000fd5b806040525082358152602083013560208201526118f960408401611695565b604082015261190a60608401611695565b60608201529392505050565b6000806040838503121561192957600080fd5b8235915061193960208401611695565b90509250929050565b60006020828403121561195457600080fd5b813567ffffffffffffffff81111561196b57600080fd5b820161014081850312156116c757600080fd5b60008451611990818460208901611766565b8083019050601760f91b80825285516119b0816001850160208a01611766565b600192019182015283516119cb816002840160208801611766565b0160020195945050505050565b634e487b7160e01b600052603260045260246000fd5b6000823561013e19833603018112611a0557600080fd5b9190910192915050565b60208082526015908201527414da1a5c1b595b9d081a5cc81b9bdd081d985b1a59605a1b604082015260600190565b634e487b7160e01b600052601160045260246000fd5b8082018082111561139e5761139e611a3e565b600060018201611a7957611a79611a3e565b5060010190565b600082611a9d57634e487b7160e01b600052601260045260246000fd5b500490565b60208152815160208201526000602083015160408084015260018060a01b03815116606084015267ffffffffffffffff60208201511660808401526040810151151560a0840152606081015160c0840152608081015160c060e0850152611b0d61012085018261178a565b905060a0820151610100850152809250505092915050565b600060208284031215611b3757600080fd5b5051919050565b60208082526023908201527f536869706d656e742068617320616c7265616479206265656e207069636b656460408201526202075760ec1b606082015260800190565b60208082526014908201527314da1a5c1b595b9d081a185cc8195e1c1a5c995960621b604082015260600190565b6000808335601e19843603018112611bc657600080fd5b83018035915067ffffffffffffffff821115611be157600080fd5b60200191503681900382131561180e57600080fd5b600060408284031215611c0857600080fd5b6040516040810181811067ffffffffffffffff82111715611c3957634e487b7160e01b600052604160045260246000fd5b60405282358152905080611c4f60208401611695565b60208201525092915050565b600060408284031215611c6d57600080fd5b6116c78383611bf656fea2646970667358221220ef6536608bdb8ec79b28359d3f59ce0df7504539adb89ee2a18e1326624095c564736f6c63430008110033",
  "devdoc": {
    "kind": "dev",
    "methods": {
      "attest((bytes32,bytes32,uint64,uint64,uint64,bytes32,address,address,bool,bytes))": {
        "params": {
          "attestation": "The new attestation."
        },
        "returns": {
          "_0": "Whether the attestation is valid."
        }
      },
      "completeShipment(uint256)": {
        "details": "Complete a shipment. Only the reciever can call this. Resolved by EAS.",
        "params": {
          "_shipmentId": "ID of the shipment"
        }
      },
      "constructor": {
        "details": "Constructor",
        "params": {
          "_eas": "Address of the EAS contract",
          "_settlementDuration": "How long the courier has to complete the shipment"
        }
      },
      "deliverShipment(uint256)": {
        "details": "Deliver a shipment. Only the courier can call this. Resolved by EAS.",
        "params": {
          "_shipmentId": "ID of the shipment"
        }
      },
      "isPayable()": {
        "returns": {
          "_0": "Whether the resolver supports ETH transfers."
        }
      },
      "multiAttest((bytes32,bytes32,uint64,uint64,uint64,bytes32,address,address,bool,bytes)[],uint256[])": {
        "params": {
          "attestations": "The new attestations.",
          "values": "Explicit ETH amounts which were sent with each attestation."
        },
        "returns": {
          "_0": "Whether all the attestations are valid."
        }
      },
      "multiRevoke((bytes32,bytes32,uint64,uint64,uint64,bytes32,address,address,bool,bytes)[],uint256[])": {
        "params": {
          "attestations": "The existing attestations to be revoked.",
          "values": "Explicit ETH amounts which were sent with each revocation."
        },
        "returns": {
          "_0": "Whether the attestations can be revoked."
        }
      },
      "requestShipment((uint256,uint256,address,address))": {
        "details": "Request a shipment",
        "params": {
          "request": "ShipmentReq struct"
        }
      },
      "revoke((bytes32,bytes32,uint64,uint64,uint64,bytes32,address,address,bool,bytes))": {
        "params": {
          "attestation": "The existing attestation to be revoked."
        },
        "returns": {
          "_0": "Whether the attestation can be revoked."
        }
      },
      "version()": {
        "returns": {
          "_0": "Semver contract version as a string."
        }
      }
    },
    "version": 1
  },
  "userdoc": {
    "kind": "user",
    "methods": {
      "attest((bytes32,bytes32,uint64,uint64,uint64,bytes32,address,address,bool,bytes))": {
        "notice": "Processes an attestation and verifies whether it's valid."
      },
      "disburse(uint256)": {
        "notice": "Called by the receiver. Only if the receiver is happy with the shipment, the courier gets paid."
      },
      "dispute(uint256,address)": {
        "notice": "Receiver or courier is unhappy, can file a dispute"
      },
      "isPayable()": {
        "notice": "Checks if the resolver can be sent ETH."
      },
      "multiAttest((bytes32,bytes32,uint64,uint64,uint64,bytes32,address,address,bool,bytes)[],uint256[])": {
        "notice": "Processes multiple attestations and verifies whether they are valid."
      },
      "multiRevoke((bytes32,bytes32,uint64,uint64,uint64,bytes32,address,address,bool,bytes)[],uint256[])": {
        "notice": "Processes revocation of multiple attestation and verifies they can be revoked."
      },
      "revoke((bytes32,bytes32,uint64,uint64,uint64,bytes32,address,address,bool,bytes))": {
        "notice": "Processes an attestation revocation and verifies if it can be revoked."
      },
      "settle(uint256)": {
        "notice": "If nobody did anything after the deadline, then the settlement can be made Anyone can call this. In the future, you can incentivize by giving a cut to the caller"
      },
      "version()": {
        "notice": "Returns the full semver contract version."
      },
      "withdraw()": {
        "notice": "Withdraw balance"
      }
    },
    "version": 1
  },
  "storageLayout": {
    "storage": [
      {
        "astId": 2067,
        "contract": "contracts/DeDe.sol:DeDe",
        "label": "eas",
        "offset": 0,
        "slot": "0",
        "type": "t_contract(IEAS)356"
      },
      {
        "astId": 2069,
        "contract": "contracts/DeDe.sol:DeDe",
        "label": "settlementDuration",
        "offset": 0,
        "slot": "1",
        "type": "t_uint256"
      },
      {
        "astId": 2071,
        "contract": "contracts/DeDe.sol:DeDe",
        "label": "currentId",
        "offset": 0,
        "slot": "2",
        "type": "t_uint256"
      },
      {
        "astId": 2076,
        "contract": "contracts/DeDe.sol:DeDe",
        "label": "shipments",
        "offset": 0,
        "slot": "3",
        "type": "t_mapping(t_uint256,t_struct(Shipment)2122_storage)"
      },
      {
        "astId": 2080,
        "contract": "contracts/DeDe.sol:DeDe",
        "label": "pickedUpShipments",
        "offset": 0,
        "slot": "4",
        "type": "t_mapping(t_uint256,t_bool)"
      },
      {
        "astId": 2084,
        "contract": "contracts/DeDe.sol:DeDe",
        "label": "fulfilledShipments",
        "offset": 0,
        "slot": "5",
        "type": "t_mapping(t_uint256,t_bool)"
      },
      {
        "astId": 2088,
        "contract": "contracts/DeDe.sol:DeDe",
        "label": "withdrawableBalance",
        "offset": 0,
        "slot": "6",
        "type": "t_mapping(t_address,t_uint256)"
      },
      {
        "astId": 2096,
        "contract": "contracts/DeDe.sol:DeDe",
        "label": "REQUESTED_SCHEMA",
        "offset": 0,
        "slot": "7",
        "type": "t_bytes32"
      },
      {
        "astId": 2098,
        "contract": "contracts/DeDe.sol:DeDe",
        "label": "PICKED_UP_SCHEMA",
        "offset": 0,
        "slot": "8",
        "type": "t_bytes32"
      },
      {
        "astId": 2100,
        "contract": "contracts/DeDe.sol:DeDe",
        "label": "DELIVERED_SCHEMA",
        "offset": 0,
        "slot": "9",
        "type": "t_bytes32"
      },
      {
        "astId": 2102,
        "contract": "contracts/DeDe.sol:DeDe",
        "label": "DISPUTED_SCHEMA",
        "offset": 0,
        "slot": "10",
        "type": "t_bytes32"
      },
      {
        "astId": 2104,
        "contract": "contracts/DeDe.sol:DeDe",
        "label": "COMPLETED_SCHEMA",
        "offset": 0,
        "slot": "11",
        "type": "t_bytes32"
      }
    ],
    "types": {
      "t_address": {
        "encoding": "inplace",
        "label": "address",
        "numberOfBytes": "20"
      },
      "t_bool": {
        "encoding": "inplace",
        "label": "bool",
        "numberOfBytes": "1"
      },
      "t_bytes32": {
        "encoding": "inplace",
        "label": "bytes32",
        "numberOfBytes": "32"
      },
      "t_contract(IEAS)356": {
        "encoding": "inplace",
        "label": "contract IEAS",
        "numberOfBytes": "20"
      },
      "t_enum(ShipmentState)2094": {
        "encoding": "inplace",
        "label": "enum DeDe.ShipmentState",
        "numberOfBytes": "1"
      },
      "t_mapping(t_address,t_uint256)": {
        "encoding": "mapping",
        "key": "t_address",
        "label": "mapping(address => uint256)",
        "numberOfBytes": "32",
        "value": "t_uint256"
      },
      "t_mapping(t_uint256,t_bool)": {
        "encoding": "mapping",
        "key": "t_uint256",
        "label": "mapping(uint256 => bool)",
        "numberOfBytes": "32",
        "value": "t_bool"
      },
      "t_mapping(t_uint256,t_struct(Shipment)2122_storage)": {
        "encoding": "mapping",
        "key": "t_uint256",
        "label": "mapping(uint256 => struct DeDe.Shipment)",
        "numberOfBytes": "32",
        "value": "t_struct(Shipment)2122_storage"
      },
      "t_struct(Shipment)2122_storage": {
        "encoding": "inplace",
        "label": "struct DeDe.Shipment",
        "members": [
          {
            "astId": 2106,
            "contract": "contracts/DeDe.sol:DeDe",
            "label": "id",
            "offset": 0,
            "slot": "0",
            "type": "t_uint256"
          },
          {
            "astId": 2109,
            "contract": "contracts/DeDe.sol:DeDe",
            "label": "state",
            "offset": 0,
            "slot": "1",
            "type": "t_enum(ShipmentState)2094"
          },
          {
            "astId": 2111,
            "contract": "contracts/DeDe.sol:DeDe",
            "label": "bounty",
            "offset": 0,
            "slot": "2",
            "type": "t_uint256"
          },
          {
            "astId": 2113,
            "contract": "contracts/DeDe.sol:DeDe",
            "label": "settlementDeadline",
            "offset": 0,
            "slot": "3",
            "type": "t_uint256"
          },
          {
            "astId": 2115,
            "contract": "contracts/DeDe.sol:DeDe",
            "label": "courier",
            "offset": 0,
            "slot": "4",
            "type": "t_address"
          },
          {
            "astId": 2117,
            "contract": "contracts/DeDe.sol:DeDe",
            "label": "sender",
            "offset": 0,
            "slot": "5",
            "type": "t_address"
          },
          {
            "astId": 2119,
            "contract": "contracts/DeDe.sol:DeDe",
            "label": "receiver",
            "offset": 0,
            "slot": "6",
            "type": "t_address"
          },
          {
            "astId": 2121,
            "contract": "contracts/DeDe.sol:DeDe",
            "label": "valid",
            "offset": 20,
            "slot": "6",
            "type": "t_bool"
          }
        ],
        "numberOfBytes": "224"
      },
      "t_uint256": {
        "encoding": "inplace",
        "label": "uint256",
        "numberOfBytes": "32"
      }
    }
  }
}