{
  "address": "0x4f361a3b293130E1c13A7B780eb49764a6F7B7DB",
  "abi": [
    {
      "inputs": [
        {
          "internalType": "uint256",
          "name": "_settlementDuration",
          "type": "uint256"
        },
        {
          "internalType": "contract IEAS",
          "name": "_eas",
          "type": "address"
        },
        {
          "internalType": "contract IWorldID",
          "name": "_worldId",
          "type": "address"
        },
        {
          "internalType": "contract IPUSHCommInterface",
          "name": "_push",
          "type": "address"
        }
      ],
      "stateMutability": "payable",
      "type": "constructor"
    },
    {
      "inputs": [],
      "name": "AccessDenied",
      "type": "error"
    },
    {
      "inputs": [],
      "name": "InsufficientValue",
      "type": "error"
    },
    {
      "inputs": [],
      "name": "InvalidEAS",
      "type": "error"
    },
    {
      "inputs": [],
      "name": "InvalidLength",
      "type": "error"
    },
    {
      "inputs": [],
      "name": "InvalidNullifier",
      "type": "error"
    },
    {
      "inputs": [],
      "name": "NotPayable",
      "type": "error"
    },
    {
      "anonymous": false,
      "inputs": [
        {
          "indexed": false,
          "internalType": "uint256",
          "name": "shipmentId",
          "type": "uint256"
        },
        {
          "indexed": false,
          "internalType": "address",
          "name": "courier",
          "type": "address"
        }
      ],
      "name": "ShipmentCompleted",
      "type": "event"
    },
    {
      "anonymous": false,
      "inputs": [
        {
          "indexed": false,
          "internalType": "uint256",
          "name": "shipmentId",
          "type": "uint256"
        },
        {
          "indexed": false,
          "internalType": "address",
          "name": "courier",
          "type": "address"
        }
      ],
      "name": "ShipmentDelivered",
      "type": "event"
    },
    {
      "anonymous": false,
      "inputs": [
        {
          "indexed": false,
          "internalType": "uint256",
          "name": "shipmentId",
          "type": "uint256"
        },
        {
          "indexed": false,
          "internalType": "address",
          "name": "courier",
          "type": "address"
        }
      ],
      "name": "ShipmentPickedUp",
      "type": "event"
    },
    {
      "anonymous": false,
      "inputs": [
        {
          "indexed": false,
          "internalType": "uint256",
          "name": "shipmentId",
          "type": "uint256"
        },
        {
          "indexed": false,
          "internalType": "address",
          "name": "sender",
          "type": "address"
        },
        {
          "indexed": false,
          "internalType": "address",
          "name": "receiver",
          "type": "address"
        },
        {
          "indexed": false,
          "internalType": "uint256",
          "name": "deadline",
          "type": "uint256"
        },
        {
          "indexed": false,
          "internalType": "uint256",
          "name": "bounty",
          "type": "uint256"
        }
      ],
      "name": "ShipmentRequested",
      "type": "event"
    },
    {
      "anonymous": false,
      "inputs": [
        {
          "indexed": true,
          "internalType": "address",
          "name": "user",
          "type": "address"
        }
      ],
      "name": "UserVerifiedWithWorldCoin",
      "type": "event"
    },
    {
      "inputs": [],
      "name": "COMPLETED_SCHEMA",
      "outputs": [
        {
          "internalType": "bytes32",
          "name": "",
          "type": "bytes32"
        }
      ],
      "stateMutability": "view",
      "type": "function"
    },
    {
      "inputs": [],
      "name": "DELIVERED_SCHEMA",
      "outputs": [
        {
          "internalType": "bytes32",
          "name": "",
          "type": "bytes32"
        }
      ],
      "stateMutability": "view",
      "type": "function"
    },
    {
      "inputs": [],
      "name": "DISPUTED_SCHEMA",
      "outputs": [
        {
          "internalType": "bytes32",
          "name": "",
          "type": "bytes32"
        }
      ],
      "stateMutability": "view",
      "type": "function"
    },
    {
      "inputs": [],
      "name": "PICKED_UP_SCHEMA",
      "outputs": [
        {
          "internalType": "bytes32",
          "name": "",
          "type": "bytes32"
        }
      ],
      "stateMutability": "view",
      "type": "function"
    },
    {
      "inputs": [
        {
          "components": [
            {
              "internalType": "bytes32",
              "name": "uid",
              "type": "bytes32"
            },
            {
              "internalType": "bytes32",
              "name": "schema",
              "type": "bytes32"
            },
            {
              "internalType": "uint64",
              "name": "time",
              "type": "uint64"
            },
            {
              "internalType": "uint64",
              "name": "expirationTime",
              "type": "uint64"
            },
            {
              "internalType": "uint64",
              "name": "revocationTime",
              "type": "uint64"
            },
            {
              "internalType": "bytes32",
              "name": "refUID",
              "type": "bytes32"
            },
            {
              "internalType": "address",
              "name": "recipient",
              "type": "address"
            },
            {
              "internalType": "address",
              "name": "attester",
              "type": "address"
            },
            {
              "internalType": "bool",
              "name": "revocable",
              "type": "bool"
            },
            {
              "internalType": "bytes",
              "name": "data",
              "type": "bytes"
            }
          ],
          "internalType": "struct Attestation",
          "name": "attestation",
          "type": "tuple"
        }
      ],
      "name": "attest",
      "outputs": [
        {
          "internalType": "bool",
          "name": "",
          "type": "bool"
        }
      ],
      "stateMutability": "payable",
      "type": "function"
    },
    {
      "inputs": [
        {
          "internalType": "uint256",
          "name": "_shipmentId",
          "type": "uint256"
        }
      ],
      "name": "completeShipment",
      "outputs": [],
      "stateMutability": "payable",
      "type": "function"
    },
    {
      "inputs": [],
      "name": "currentId",
      "outputs": [
        {
          "internalType": "uint256",
          "name": "",
          "type": "uint256"
        }
      ],
      "stateMutability": "view",
      "type": "function"
    },
    {
      "inputs": [
        {
          "internalType": "uint256",
          "name": "_shipmentId",
          "type": "uint256"
        }
      ],
      "name": "deliverShipment",
      "outputs": [],
      "stateMutability": "payable",
      "type": "function"
    },
    {
      "inputs": [],
      "name": "deliveryIndex",
      "outputs": [
        {
          "internalType": "uint256",
          "name": "",
          "type": "uint256"
        }
      ],
      "stateMutability": "view",
      "type": "function"
    },
    {
      "inputs": [
        {
          "internalType": "uint256",
          "name": "_shipmentId",
          "type": "uint256"
        }
      ],
      "name": "disburse",
      "outputs": [],
      "stateMutability": "nonpayable",
      "type": "function"
    },
    {
      "inputs": [
        {
          "internalType": "uint256",
          "name": "_shipmentId",
          "type": "uint256"
        },
        {
          "internalType": "address",
          "name": "disputer",
          "type": "address"
        }
      ],
      "name": "dispute",
      "outputs": [],
      "stateMutability": "nonpayable",
      "type": "function"
    },
    {
      "inputs": [
        {
          "internalType": "uint256",
          "name": "",
          "type": "uint256"
        }
      ],
      "name": "fulfilledShipments",
      "outputs": [
        {
          "internalType": "bool",
          "name": "",
          "type": "bool"
        }
      ],
      "stateMutability": "view",
      "type": "function"
    },
    {
      "inputs": [],
      "name": "isPayable",
      "outputs": [
        {
          "internalType": "bool",
          "name": "",
          "type": "bool"
        }
      ],
      "stateMutability": "pure",
      "type": "function"
    },
    {
      "inputs": [
        {
          "components": [
            {
              "internalType": "bytes32",
              "name": "uid",
              "type": "bytes32"
            },
            {
              "internalType": "bytes32",
              "name": "schema",
              "type": "bytes32"
            },
            {
              "internalType": "uint64",
              "name": "time",
              "type": "uint64"
            },
            {
              "internalType": "uint64",
              "name": "expirationTime",
              "type": "uint64"
            },
            {
              "internalType": "uint64",
              "name": "revocationTime",
              "type": "uint64"
            },
            {
              "internalType": "bytes32",
              "name": "refUID",
              "type": "bytes32"
            },
            {
              "internalType": "address",
              "name": "recipient",
              "type": "address"
            },
            {
              "internalType": "address",
              "name": "attester",
              "type": "address"
            },
            {
              "internalType": "bool",
              "name": "revocable",
              "type": "bool"
            },
            {
              "internalType": "bytes",
              "name": "data",
              "type": "bytes"
            }
          ],
          "internalType": "struct Attestation[]",
          "name": "attestations",
          "type": "tuple[]"
        },
        {
          "internalType": "uint256[]",
          "name": "values",
          "type": "uint256[]"
        }
      ],
      "name": "multiAttest",
      "outputs": [
        {
          "internalType": "bool",
          "name": "",
          "type": "bool"
        }
      ],
      "stateMutability": "payable",
      "type": "function"
    },
    {
      "inputs": [
        {
          "components": [
            {
              "internalType": "bytes32",
              "name": "uid",
              "type": "bytes32"
            },
            {
              "internalType": "bytes32",
              "name": "schema",
              "type": "bytes32"
            },
            {
              "internalType": "uint64",
              "name": "time",
              "type": "uint64"
            },
            {
              "internalType": "uint64",
              "name": "expirationTime",
              "type": "uint64"
            },
            {
              "internalType": "uint64",
              "name": "revocationTime",
              "type": "uint64"
            },
            {
              "internalType": "bytes32",
              "name": "refUID",
              "type": "bytes32"
            },
            {
              "internalType": "address",
              "name": "recipient",
              "type": "address"
            },
            {
              "internalType": "address",
              "name": "attester",
              "type": "address"
            },
            {
              "internalType": "bool",
              "name": "revocable",
              "type": "bool"
            },
            {
              "internalType": "bytes",
              "name": "data",
              "type": "bytes"
            }
          ],
          "internalType": "struct Attestation[]",
          "name": "attestations",
          "type": "tuple[]"
        },
        {
          "internalType": "uint256[]",
          "name": "values",
          "type": "uint256[]"
        }
      ],
      "name": "multiRevoke",
      "outputs": [
        {
          "internalType": "bool",
          "name": "",
          "type": "bool"
        }
      ],
      "stateMutability": "payable",
      "type": "function"
    },
    {
      "inputs": [
        {
          "internalType": "uint256",
          "name": "",
          "type": "uint256"
        }
      ],
      "name": "pickedUpShipments",
      "outputs": [
        {
          "internalType": "bool",
          "name": "",
          "type": "bool"
        }
      ],
      "stateMutability": "view",
      "type": "function"
    },
    {
      "inputs": [
        {
          "internalType": "address",
          "name": "receiver",
          "type": "address"
        }
      ],
      "name": "requestShipment",
      "outputs": [
        {
          "internalType": "bytes32",
          "name": "",
          "type": "bytes32"
        }
      ],
      "stateMutability": "payable",
      "type": "function"
    },
    {
      "inputs": [
        {
          "components": [
            {
              "internalType": "bytes32",
              "name": "uid",
              "type": "bytes32"
            },
            {
              "internalType": "bytes32",
              "name": "schema",
              "type": "bytes32"
            },
            {
              "internalType": "uint64",
              "name": "time",
              "type": "uint64"
            },
            {
              "internalType": "uint64",
              "name": "expirationTime",
              "type": "uint64"
            },
            {
              "internalType": "uint64",
              "name": "revocationTime",
              "type": "uint64"
            },
            {
              "internalType": "bytes32",
              "name": "refUID",
              "type": "bytes32"
            },
            {
              "internalType": "address",
              "name": "recipient",
              "type": "address"
            },
            {
              "internalType": "address",
              "name": "attester",
              "type": "address"
            },
            {
              "internalType": "bool",
              "name": "revocable",
              "type": "bool"
            },
            {
              "internalType": "bytes",
              "name": "data",
              "type": "bytes"
            }
          ],
          "internalType": "struct Attestation",
          "name": "attestation",
          "type": "tuple"
        }
      ],
      "name": "revoke",
      "outputs": [
        {
          "internalType": "bool",
          "name": "",
          "type": "bool"
        }
      ],
      "stateMutability": "payable",
      "type": "function"
    },
    {
      "inputs": [
        {
          "internalType": "bytes32",
          "name": "_schema",
          "type": "bytes32"
        }
      ],
      "name": "setCompletedSchema",
      "outputs": [],
      "stateMutability": "nonpayable",
      "type": "function"
    },
    {
      "inputs": [
        {
          "internalType": "bytes32",
          "name": "_schema",
          "type": "bytes32"
        }
      ],
      "name": "setDeliveredSchema",
      "outputs": [],
      "stateMutability": "nonpayable",
      "type": "function"
    },
    {
      "inputs": [
        {
          "internalType": "bytes32",
          "name": "_schema",
          "type": "bytes32"
        }
      ],
      "name": "setDisputedSchema",
      "outputs": [],
      "stateMutability": "nonpayable",
      "type": "function"
    },
    {
      "inputs": [
        {
          "internalType": "bytes32",
          "name": "_schema",
          "type": "bytes32"
        }
      ],
      "name": "setPickedUpSchema",
      "outputs": [],
      "stateMutability": "nonpayable",
      "type": "function"
    },
    {
      "inputs": [
        {
          "internalType": "uint256",
          "name": "_shipmentId",
          "type": "uint256"
        }
      ],
      "name": "settle",
      "outputs": [],
      "stateMutability": "nonpayable",
      "type": "function"
    },
    {
      "inputs": [],
      "name": "settlementDuration",
      "outputs": [
        {
          "internalType": "uint256",
          "name": "",
          "type": "uint256"
        }
      ],
      "stateMutability": "view",
      "type": "function"
    },
    {
      "inputs": [
        {
          "internalType": "uint256",
          "name": "",
          "type": "uint256"
        }
      ],
      "name": "shipments",
      "outputs": [
        {
          "internalType": "uint256",
          "name": "id",
          "type": "uint256"
        },
        {
          "internalType": "enum DeDe.ShipmentState",
          "name": "state",
          "type": "uint8"
        },
        {
          "internalType": "uint256",
          "name": "bounty",
          "type": "uint256"
        },
        {
          "internalType": "uint256",
          "name": "settlementDeadline",
          "type": "uint256"
        },
        {
          "internalType": "address",
          "name": "courier",
          "type": "address"
        },
        {
          "internalType": "address",
          "name": "sender",
          "type": "address"
        },
        {
          "internalType": "address",
          "name": "receiver",
          "type": "address"
        },
        {
          "internalType": "bool",
          "name": "valid",
          "type": "bool"
        }
      ],
      "stateMutability": "view",
      "type": "function"
    },
    {
      "inputs": [
        {
          "internalType": "address",
          "name": "signal",
          "type": "address"
        },
        {
          "internalType": "uint256",
          "name": "root",
          "type": "uint256"
        },
        {
          "internalType": "uint256",
          "name": "nullifierHash",
          "type": "uint256"
        },
        {
          "internalType": "uint256[8]",
          "name": "proof",
          "type": "uint256[8]"
        }
      ],
      "name": "verifyWithWorldCoin",
      "outputs": [],
      "stateMutability": "nonpayable",
      "type": "function"
    },
    {
      "inputs": [],
      "name": "version",
      "outputs": [
        {
          "internalType": "string",
          "name": "",
          "type": "string"
        }
      ],
      "stateMutability": "view",
      "type": "function"
    },
    {
      "inputs": [],
      "name": "withdraw",
      "outputs": [],
      "stateMutability": "nonpayable",
      "type": "function"
    },
    {
      "inputs": [
        {
          "internalType": "address",
          "name": "",
          "type": "address"
        }
      ],
      "name": "withdrawableBalance",
      "outputs": [
        {
          "internalType": "uint256",
          "name": "",
          "type": "uint256"
        }
      ],
      "stateMutability": "view",
      "type": "function"
    },
    {
      "stateMutability": "payable",
      "type": "receive"
    }
  ],
  "transactionHash": "0x9969f29a3c8adf217db3864617dbe9c635c60e1cd23a430970ebb819b765da75",
  "args": [
    0,
    "0x0000000000000000000000000000000000000001",
    "0x0000000000000000000000000000000000000001",
    "0x0000000000000000000000000000000000000000"
  ],
  "numDeployments": 2,
  "solcInputHash": "26a93357e7e12f650a856b02d8374ed2",
  "bytecode": "0x600160c0526101c0604052602c61016081815290620025d8610180396000906200002a90826200026a565b5060405180606001604052806025815260200162002604602591396001906200005490826200026a565b507f649c99bb183684413dba0659c79fe734e35e8fe8c53f48674ff7f39aa1226d6660001b600c5560405162002629380380620026298339810160408190526200009e916200034f565b8260016003600085806001600160a01b03166080816001600160a01b03168152505062000111620000fc6000604051602001620000dc919062000426565b6040516020818303038152906040526200018e60201b620015791760201c565b6001604051602001620000dc9291906200043b565b60a0525060e09290925261010052610120526001600160a01b0381166200014b576040516341bc07ff60e11b815260040160405180910390fd5b6001600160a01b0390811661014052600494909455600380549385166001600160a01b0319948516179055600b8054919094169216919091179091555062000488565b6000600882604051602001620001a5919062000457565b60408051601f198184030181529190528051602090910120901c92915050565b634e487b7160e01b600052604160045260246000fd5b600181811c90821680620001f057607f821691505b6020821081036200021157634e487b7160e01b600052602260045260246000fd5b50919050565b601f8211156200026557600081815260208120601f850160051c81016020861015620002405750805b601f850160051c820191505b8181101562000261578281556001016200024c565b5050505b505050565b81516001600160401b03811115620002865762000286620001c5565b6200029e81620002978454620001db565b8462000217565b602080601f831160018114620002d65760008415620002bd5750858301515b600019600386901b1c1916600185901b17855562000261565b600085815260208120601f198616915b828110156200030757888601518255948401946001909101908401620002e6565b5085821015620003265787850151600019600388901b60f8161c191681555b5050505050600190811b01905550565b6001600160a01b03811681146200034c57600080fd5b50565b600080600080608085870312156200036657600080fd5b8451935060208501516200037a8162000336565b60408601519093506200038d8162000336565b6060860151909250620003a08162000336565b939692955090935050565b60008154620003ba81620001db565b60018281168015620003d55760018114620003eb576200041c565b60ff19841687528215158302870194506200041c565b8560005260208060002060005b85811015620004135781548a820152908401908201620003f8565b50505082870194505b5050505092915050565b6000620004348284620003ab565b9392505050565b82815260006200044f6020830184620003ab565b949350505050565b6000825160005b818110156200047a57602081860181015185830152016200045e565b506000920191825250919050565b60805160a05160c05160e0516101005161012051610140516120f5620004e3600039600061164c0152600061068901526000610660015260006106370152600061145f015260006114c10152600061142f01526120f56000f3fe6080604052600436106101c65760003560e01c80638df82800116100f7578063d74c934c11610095578063e60c350511610064578063e60c350514610532578063efdfb14014610545578063f15456b51461055b578063fc8258b61461056e57600080fd5b8063d74c934c146104e3578063e00dd161146104f6578063e0d516641461050c578063e49617e11461051f57600080fd5b8063bd77ac2c116100d1578063bd77ac2c14610483578063ca65e1cb146104a3578063cac4f497146104b9578063ce46e046146104cf57600080fd5b80638df828001461043157806391db0b7e14610451578063a765fbea1461046457600080fd5b806357692213116101645780637943a4e71161013e5780637943a4e7146103ae5780637dad1fbc146103de578063818fd238146103fe57806388e5b2d91461041e57600080fd5b80635769221314610362578063599172b1146103785780636441e96d1461039857600080fd5b80633ccfd60b116101a05780633ccfd60b146102f55780634e81d59a1461030a578063527087471461032057806354fd4d501461034057600080fd5b806302b62938146101eb5780631a9dcb351461022b5780632ac08a931461026b57600080fd5b366101e657604051631574f9f360e01b815260040160405180910390fd5b005b600080fd5b3480156101f757600080fd5b50610218610206366004611a22565b60096020526000908152604090205481565b6040519081526020015b60405180910390f35b34801561023757600080fd5b5061025b610246366004611a44565b60086020526000908152604090205460ff1681565b6040519015158152602001610222565b34801561027757600080fd5b506102e1610286366004611a44565b60066020819052600091825260409091208054600182015460028301546003840154600485015460058601549590960154939560ff93841695929491936001600160a01b039182169382169291821691600160a01b90041688565b604051610222989796959493929190611a73565b34801561030157600080fd5b506101e461058e565b34801561031657600080fd5b50610218600d5481565b34801561032c57600080fd5b506101e461033b366004611a44565b600f55565b34801561034c57600080fd5b50610355610630565b6040516102229190611b2c565b34801561036e57600080fd5b5061021860045481565b34801561038457600080fd5b506101e4610393366004611a44565b600d55565b3480156103a457600080fd5b50610218600f5481565b3480156103ba57600080fd5b5061025b6103c9366004611a44565b60076020526000908152604090205460ff1681565b3480156103ea57600080fd5b506101e46103f9366004611a44565b600e55565b34801561040a57600080fd5b506101e4610419366004611a44565b601055565b61025b61042c366004611b8b565b6106d3565b34801561043d57600080fd5b506101e461044c366004611a44565b6107a2565b61025b61045f366004611b8b565b610a4f565b34801561047057600080fd5b506101e461047f366004611bf7565b5050565b34801561048f57600080fd5b506101e461049e366004611a44565b610b0e565b3480156104af57600080fd5b5061021860105481565b3480156104c557600080fd5b50610218600a5481565b3480156104db57600080fd5b50600061025b565b6102186104f1366004611a22565b610dfa565b34801561050257600080fd5b5061021860055481565b6101e461051a366004611a44565b6110c1565b61025b61052d366004611c23565b611233565b61025b610540366004611c23565b61124f565b34801561055157600080fd5b50610218600e5481565b6101e4610569366004611a44565b611263565b34801561057a57600080fd5b506101e4610589366004611c5f565b6113fd565b336000908152600960205260409020546105ef5760405162461bcd60e51b815260206004820152601760248201527f4e6f20776974686472617761626c652062616c616e636500000000000000000060448201526064015b60405180910390fd5b33600081815260096020526040808220805490839055905190929183156108fc02918491818181858888f1935050505015801561047f573d6000803e3d6000fd5b606061065b7f00000000000000000000000000000000000000000000000000000000000000006115ae565b6106847f00000000000000000000000000000000000000000000000000000000000000006115ae565b6106ad7f00000000000000000000000000000000000000000000000000000000000000006115ae565b6040516020016106bf93929190611cad565b604051602081830303815290604052905090565b60006106dd611641565b838281146106fe5760405163251f56a160e21b815260040160405180910390fd5b3460005b8281101561079257600086868381811061071e5761071e611d07565b905060200201359050828111156107485760405163044044a560e21b815260040160405180910390fd5b61077589898481811061075d5761075d611d07565b905060200281019061076f9190611d1d565b8261168c565b61078657600094505050505061079a565b90910390600101610702565b506001925050505b949350505050565b600081815260066020908152604080832081516101008101909252805482526001810154919290919083019060ff1660048111156107e2576107e2611a5d565b60048111156107f3576107f3611a5d565b8152600282015460208201526003820154604082015260048201546001600160a01b03908116606083015260058301548116608083015260069092015491821660a0820152600160a01b90910460ff16151560c09091015260e08101519091506001901515146108755760405162461bcd60e51b81526004016105e690611d3e565b43816060015111156108c95760405162461bcd60e51b815260206004820152601860248201527f536869706d656e7420686173206e6f742065787069726564000000000000000060448201526064016105e6565b600060e082018190528281526006602090815260409091208251815590820151600182810180548594939260ff199091169083600481111561090d5761090d611a5d565b021790555060408281015160028301556060830151600383015560808301516004830180546001600160a01b039283166001600160a01b03199182161790915560a08501516005850180549184169190921617905560c08401516006909301805460e0909501511515600160a01b026001600160a81b0319909516939091169290921792909217905560008381526008602052205460ff16156109e25760408082015160808301516001600160a01b0316600090815260096020529182208054919290916109dc908490611d83565b90915550505b60008281526007602052604090205460ff168015610a0f575060008281526008602052604090205460ff16155b1561047f5760408082015160a08301516001600160a01b031660009081526009602052918220805491929091610a46908490611d83565b90915550505050565b6000610a59611641565b83828114610a7a5760405163251f56a160e21b815260040160405180910390fd5b3460005b82811015610792576000868683818110610a9a57610a9a611d07565b90506020020135905082811115610ac45760405163044044a560e21b815260040160405180910390fd5b610af1898984818110610ad957610ad9611d07565b9050602002810190610aeb9190611d1d565b82611695565b610b0257600094505050505061079a565b90910390600101610a7e565b60008181526007602052604090205460ff161515600114610b715760405162461bcd60e51b815260206004820152601960248201527f536869706d656e74206973206e6f74207069636b65642075700000000000000060448201526064016105e6565b60008181526008602052604090205460ff161515600114610bd45760405162461bcd60e51b815260206004820152601960248201527f536869706d656e74206973206e6f742066756c66696c6c65640000000000000060448201526064016105e6565b600081815260066020908152604080832081516101008101909252805482526001810154919290919083019060ff166004811115610c1457610c14611a5d565b6004811115610c2557610c25611a5d565b8152600282015460208201526003820154604082015260048201546001600160a01b03908116606083015260058301548116608083015260069092015491821660a0820152600160a01b90910460ff16151560c09091015260e0810151909150600190151514610ca75760405162461bcd60e51b81526004016105e690611d3e565b60c08101516001600160a01b03163314610d035760405162461bcd60e51b815260206004820152601a60248201527f43616c6c6572206973206e6f742074686520726563656976657200000000000060448201526064016105e6565b600060e082018190528281526006602090815260409091208251815590820151600182810180548594939260ff1990911690836004811115610d4757610d47611a5d565b02179055506040828101516002830155606083015160038301556080808401516004840180546001600160a01b039283166001600160a01b03199182161790915560a08601516005860180549184169190921617905560c08501516006909401805460e0909601511515600160a01b026001600160a81b03199096169482169490941794909417909255838101519184015190921660009081526009602052918220805491929091610a46908490611d83565b604080518082018252348152600554602080830182905283516101008101909452908352600092839181018281526020018360000151815260200160045442610e439190611d83565b815260006020808301829052336040808501919091526001600160a01b03891660608501526001608090940184905260055483526006825290912083518155908301518183018054949550859492939192909160ff1990911690836004811115610eaf57610eaf611a5d565b0217905550604082015160028201556060820151600382015560808201516004820180546001600160a01b039283166001600160a01b03199182161790915560a084015160058085018054928516929093169190911790915560c08401516006909301805460e0909501511515600160a01b026001600160a81b03199095169390921692909217929092179091558054906000610f4b83611d96565b91905055507f22e37630b11fea152d89ae822dbde78b0feaa2589d1d7e1e2a1e93db6b25f1886005543386856000015160045442610f899190611d83565b604080519586526001600160a01b03948516602087015292909316918401919091526060830152608082015260a00160405180910390a1600354604080518082018252600c548152815160c0810183526001600160a01b03888116825260006020808401829052600184870152606080850183905286518a51818401528a8301518189015287518082038901815291018752608085015260a08401829052840192909252925163f17325e760e01b81529093929092169163f17325e79161105291600401611daf565b6020604051808303816000875af1158015611071573d6000803e3d6000fd5b505050506040513d601f19601f820116820180604052508101906110959190611e32565b600b549091506001600160a01b03161561079a57600b54835161079a916001600160a01b031690611760565b600081815260066020819052604090912090810154600160a01b900460ff1615156001146111015760405162461bcd60e51b81526004016105e690611d3e565b60018082015460ff16600481111561111b5761111b611a5d565b146111385760405162461bcd60e51b81526004016105e690611e4b565b4381600301541161115b5760405162461bcd60e51b81526004016105e690611e8e565b60048101546001600160a01b031633146111b75760405162461bcd60e51b815260206004820152601960248201527f53656e646572206973206e6f742074686520636f75726965720000000000000060448201526064016105e6565b600082815260086020908152604091829020805460ff199081166001908117909255600485015491850180549091166002179055825185815233928101929092526001600160a01b0316917fbf7b34fcfb0fa3cde7bd3ce969eaf623d71024a06634fb384b78c1cac6c7eaac91015b60405180910390a1505050565b600061123d611641565b611247823461168c565b90505b919050565b6000611259611641565b6112478234611695565b600081815260066020819052604090912090810154600160a01b900460ff1615156001146112a35760405162461bcd60e51b81526004016105e690611d3e565b6002600182015460ff1660048111156112be576112be611a5d565b1461130b5760405162461bcd60e51b815260206004820152601d60248201527f536869706d656e74206973206e6f74207965742064656c69766572656400000060448201526064016105e6565b4381600301541161132e5760405162461bcd60e51b81526004016105e690611e8e565b60068101546001600160a01b0316331461138a5760405162461bcd60e51b815260206004820152601a60248201527f53656e646572206973206e6f742074686520726563656976657200000000000060448201526064016105e6565b600082815260086020908152604091829020805460ff199081166001908117909255600485015491850180549091166002179055825185815233928101929092526001600160a01b0316917f537363b9a51fea93bd842ffdb00c866c81120a6ce2f76037c732ea4d6592b7629101611226565b60008281526002602052604090205460ff161561142d57604051632ec8265960e11b815260040160405180910390fd5b7f00000000000000000000000000000000000000000000000000000000000000006001600160a01b0316633bc778e3847f00000000000000000000000000000000000000000000000000000000000000006114be886040516020016114aa919060609190911b6bffffffffffffffffffffffff1916815260140190565b604051602081830303815290604052611579565b867f0000000000000000000000000000000000000000000000000000000000000000876040518763ffffffff1660e01b815260040161150296959493929190611ebc565b60006040518083038186803b15801561151a57600080fd5b505afa15801561152e573d6000803e3d6000fd5b505050600083815260026020526040808220805460ff19166001179055513392507f769880fbb2d5d9735427e77a7f6109a5f5887d06ccaacc6af7b937b74775736b9190a250505050565b600060088260405160200161158e9190611ef4565b60408051601f198184030181529190528051602090910120901c92915050565b606060006115bb8361181e565b600101905060008167ffffffffffffffff8111156115db576115db611f06565b6040519080825280601f01601f191660200182016040528015611605576020820181803683370190505b5090508181016020015b600019016f181899199a1a9b1b9c1cb0b131b232b360811b600a86061a8153600a850494508461160f57509392505050565b336001600160a01b037f0000000000000000000000000000000000000000000000000000000000000000161461168a57604051634ca8886760e01b815260040160405180910390fd5b565b60015b92915050565b6000600d548360200135036116d65760006116b4610120850185611f1c565b8101906116c19190611fc8565b90506116d081600001516118f6565b50611757565b600e5483602001350361170f5760006116f3610120850185611f1c565b8101906117009190611fc8565b90506116d081600001516110c1565b600f5460208401351461175757601054836020013503611757576000611739610120850185611f1c565b8101906117469190611fc8565b90506117558160000151611263565b505b50600192915050565b816001600160a01b031663ba3d69d773888880d76b08ee18a853bfa503f83ac558b108dc3061178e856115ae565b60405160200161179e9190611fe4565b60408051601f19818403018152908290526117bb91602001612021565b6040516020818303038152906040526040518463ffffffff1660e01b81526004016117e89392919061208a565b600060405180830381600087803b15801561180257600080fd5b505af1158015611816573d6000803e3d6000fd5b505050505050565b60008072184f03e93ff9f4daa797ed6e38ed64bf6a1f0160401b831061185d5772184f03e93ff9f4daa797ed6e38ed64bf6a1f0160401b830492506040015b6d04ee2d6d415b85acef81000000008310611889576d04ee2d6d415b85acef8100000000830492506020015b662386f26fc1000083106118a757662386f26fc10000830492506010015b6305f5e10083106118bf576305f5e100830492506008015b61271083106118d357612710830492506004015b606483106118e5576064830492506002015b600a831061168f5760010192915050565b600081815260066020526040812090600182015460ff16600481111561191e5761191e611a5d565b1461193b5760405162461bcd60e51b81526004016105e690611e4b565b6006810154600160a01b900460ff16151560011461196b5760405162461bcd60e51b81526004016105e690611d3e565b4281600301541161198e5760405162461bcd60e51b81526004016105e690611e8e565b6000828152600760205260409020805460ff1990811660019081179092556004830180546001600160a01b03191633179055828201805490911682800217905550604080518381523360208201527f07ad9f5eac765497cb94cdac99aa0dc0d7cc27c93fb54b1c02a3d48adbb13139910160405180910390a15050565b80356001600160a01b038116811461124a57600080fd5b600060208284031215611a3457600080fd5b611a3d82611a0b565b9392505050565b600060208284031215611a5657600080fd5b5035919050565b634e487b7160e01b600052602160045260246000fd5b888152610100810160058910611a9957634e487b7160e01b600052602160045260246000fd5b6020820198909852604081019690965260608601949094526001600160a01b03928316608086015290821660a08501521660c0830152151560e090910152919050565b60005b83811015611af7578181015183820152602001611adf565b50506000910152565b60008151808452611b18816020860160208601611adc565b601f01601f19169290920160200192915050565b602081526000611a3d6020830184611b00565b60008083601f840112611b5157600080fd5b50813567ffffffffffffffff811115611b6957600080fd5b6020830191508360208260051b8501011115611b8457600080fd5b9250929050565b60008060008060408587031215611ba157600080fd5b843567ffffffffffffffff80821115611bb957600080fd5b611bc588838901611b3f565b90965094506020870135915080821115611bde57600080fd5b50611beb87828801611b3f565b95989497509550505050565b60008060408385031215611c0a57600080fd5b82359150611c1a60208401611a0b565b90509250929050565b600060208284031215611c3557600080fd5b813567ffffffffffffffff811115611c4c57600080fd5b82016101408185031215611a3d57600080fd5b600080600080610160808688031215611c7757600080fd5b611c8086611a0b565b94506020860135935060408601359250868187011115611c9f57600080fd5b509295919450926060019150565b60008451611cbf818460208901611adc565b8083019050601760f91b8082528551611cdf816001850160208a01611adc565b60019201918201528351611cfa816002840160208801611adc565b0160020195945050505050565b634e487b7160e01b600052603260045260246000fd5b6000823561013e19833603018112611d3457600080fd5b9190910192915050565b60208082526015908201527414da1a5c1b595b9d081a5cc81b9bdd081d985b1a59605a1b604082015260600190565b634e487b7160e01b600052601160045260246000fd5b8082018082111561168f5761168f611d6d565b600060018201611da857611da8611d6d565b5060010190565b60208152815160208201526000602083015160408084015260018060a01b03815116606084015267ffffffffffffffff60208201511660808401526040810151151560a0840152606081015160c0840152608081015160c060e0850152611e1a610120850182611b00565b905060a0820151610100850152809250505092915050565b600060208284031215611e4457600080fd5b5051919050565b60208082526023908201527f536869706d656e742068617320616c7265616479206265656e207069636b656460408201526202075760ec1b606082015260800190565b60208082526014908201527314da1a5c1b595b9d081a185cc8195e1c1a5c995960621b604082015260600190565b60006101a0820190508782528660208301528560408301528460608301528360808301526101008360a0840137979650505050505050565b60008251611d34818460208701611adc565b634e487b7160e01b600052604160045260246000fd5b6000808335601e19843603018112611f3357600080fd5b83018035915067ffffffffffffffff821115611f4e57600080fd5b602001915036819003821315611b8457600080fd5b600060408284031215611f7557600080fd5b6040516040810181811067ffffffffffffffff82111715611fa657634e487b7160e01b600052604160045260246000fd5b60405282358152905080611fbc60208401611a0b565b60208201525092915050565b600060408284031215611fda57600080fd5b611a3d8383611f63565b6702137bab73a3c9d160c51b815260008251612007816008850160208701611adc565b6208aa8960eb1b6008939091019283015250600b01919050565b600360fc1b81526000602b60f81b806001840152603160f81b6002840152806003840152744e65772044656c697665727920526571756573742160581b600484015280601984015250825161207d81601a850160208701611adc565b91909101601a0192915050565b6001600160a01b038481168252831660208201526060604082018190526000906120b690830184611b00565b9594505050505056fea264697066735822122004e8aaa0dc2bce67f15772c6d1da039b5ddb34ef9a4c26948bb0178b351f650864736f6c634300081100336170705f73746167696e675f62353631363135336334663832363536303031663537306533303630306237657665726966792d756e697175652d68756d616e2d616e642d6765742d35302d706f696e7473",
  "devdoc": {
    "kind": "dev",
    "methods": {
      "attest((bytes32,bytes32,uint64,uint64,uint64,bytes32,address,address,bool,bytes))": {
        "params": {
          "attestation": "The new attestation."
        },
        "returns": {
          "_0": "Whether the attestation is valid."
        }
      },
      "completeShipment(uint256)": {
        "details": "Complete a shipment. Only the reciever can call this. Resolved by EAS.",
        "params": {
          "_shipmentId": "ID of the shipment"
        }
      },
      "constructor": {
        "details": "Constructor",
        "params": {
          "_eas": "Address of the EAS contract",
          "_settlementDuration": "How long the courier has to complete the shipment"
        }
      },
      "deliverShipment(uint256)": {
        "details": "Deliver a shipment. Only the courier can call this. Resolved by EAS.",
        "params": {
          "_shipmentId": "ID of the shipment"
        }
      },
      "isPayable()": {
        "returns": {
          "_0": "Whether the resolver supports ETH transfers."
        }
      },
      "multiAttest((bytes32,bytes32,uint64,uint64,uint64,bytes32,address,address,bool,bytes)[],uint256[])": {
        "params": {
          "attestations": "The new attestations.",
          "values": "Explicit ETH amounts which were sent with each attestation."
        },
        "returns": {
          "_0": "Whether all the attestations are valid."
        }
      },
      "multiRevoke((bytes32,bytes32,uint64,uint64,uint64,bytes32,address,address,bool,bytes)[],uint256[])": {
        "params": {
          "attestations": "The existing attestations to be revoked.",
          "values": "Explicit ETH amounts which were sent with each revocation."
        },
        "returns": {
          "_0": "Whether the attestations can be revoked."
        }
      },
      "requestShipment(address)": {
        "details": "Request a shipment. Direct Contract Attestation",
        "params": {
          "receiver": "receiver of the shipment"
        }
      },
      "revoke((bytes32,bytes32,uint64,uint64,uint64,bytes32,address,address,bool,bytes))": {
        "params": {
          "attestation": "The existing attestation to be revoked."
        },
        "returns": {
          "_0": "Whether the attestation can be revoked."
        }
      },
      "verifyWithWorldCoin(address,uint256,uint256,uint256[8])": {
        "details": "Feel free to rename this method however you want! We've used `claim`, `verify` or `execute` in the past.",
        "params": {
          "nullifierHash": "The nullifier hash for this proof, preventing double signaling (returned by the JS widget).",
          "proof": "The zero-knowledge proof that demonstrates the claimer is registered with World ID (returned by the JS widget).",
          "root": "The root of the Merkle tree (returned by the JS widget).",
          "signal": "An arbitrary input from the user, usually the user's wallet address (check README for further details)"
        }
      },
      "version()": {
        "returns": {
          "_0": "Semver contract version as a string."
        }
      }
    },
    "version": 1
  },
  "userdoc": {
    "errors": {
      "InvalidNullifier()": [
        {
          "notice": "Thrown when attempting to reuse a nullifier"
        }
      ]
    },
    "events": {
      "UserVerifiedWithWorldCoin(address)": {
        "notice": "Event emitted when a user is verified with World ID"
      }
    },
    "kind": "user",
    "methods": {
      "attest((bytes32,bytes32,uint64,uint64,uint64,bytes32,address,address,bool,bytes))": {
        "notice": "Processes an attestation and verifies whether it's valid."
      },
      "disburse(uint256)": {
        "notice": "Called by the receiver. Only if the receiver is happy with the shipment, the courier gets paid."
      },
      "dispute(uint256,address)": {
        "notice": "Receiver or courier is unhappy, can file a dispute"
      },
      "isPayable()": {
        "notice": "Checks if the resolver can be sent ETH."
      },
      "multiAttest((bytes32,bytes32,uint64,uint64,uint64,bytes32,address,address,bool,bytes)[],uint256[])": {
        "notice": "Processes multiple attestations and verifies whether they are valid."
      },
      "multiRevoke((bytes32,bytes32,uint64,uint64,uint64,bytes32,address,address,bool,bytes)[],uint256[])": {
        "notice": "Processes revocation of multiple attestation and verifies they can be revoked."
      },
      "revoke((bytes32,bytes32,uint64,uint64,uint64,bytes32,address,address,bool,bytes))": {
        "notice": "Processes an attestation revocation and verifies if it can be revoked."
      },
      "settle(uint256)": {
        "notice": "If nobody did anything after the deadline, then the settlement can be made Anyone can call this. In the future, you can incentivize by giving a cut to the caller"
      },
      "version()": {
        "notice": "Returns the full semver contract version."
      },
      "withdraw()": {
        "notice": "Withdraw balance"
      }
    },
    "version": 1
  },
  "storageLayout": {
    "storage": [
      {
        "astId": 2909,
        "contract": "contracts/DeDe.sol:DeDe",
        "label": "APP_ID",
        "offset": 0,
        "slot": "0",
        "type": "t_string_storage"
      },
      {
        "astId": 2912,
        "contract": "contracts/DeDe.sol:DeDe",
        "label": "ACTION_ID",
        "offset": 0,
        "slot": "1",
        "type": "t_string_storage"
      },
      {
        "astId": 2917,
        "contract": "contracts/DeDe.sol:DeDe",
        "label": "nullifierHashes",
        "offset": 0,
        "slot": "2",
        "type": "t_mapping(t_uint256,t_bool)"
      },
      {
        "astId": 2081,
        "contract": "contracts/DeDe.sol:DeDe",
        "label": "eas",
        "offset": 0,
        "slot": "3",
        "type": "t_contract(IEAS)356"
      },
      {
        "astId": 2083,
        "contract": "contracts/DeDe.sol:DeDe",
        "label": "settlementDuration",
        "offset": 0,
        "slot": "4",
        "type": "t_uint256"
      },
      {
        "astId": 2085,
        "contract": "contracts/DeDe.sol:DeDe",
        "label": "currentId",
        "offset": 0,
        "slot": "5",
        "type": "t_uint256"
      },
      {
        "astId": 2090,
        "contract": "contracts/DeDe.sol:DeDe",
        "label": "shipments",
        "offset": 0,
        "slot": "6",
        "type": "t_mapping(t_uint256,t_struct(Shipment)2182_storage)"
      },
      {
        "astId": 2094,
        "contract": "contracts/DeDe.sol:DeDe",
        "label": "pickedUpShipments",
        "offset": 0,
        "slot": "7",
        "type": "t_mapping(t_uint256,t_bool)"
      },
      {
        "astId": 2098,
        "contract": "contracts/DeDe.sol:DeDe",
        "label": "fulfilledShipments",
        "offset": 0,
        "slot": "8",
        "type": "t_mapping(t_uint256,t_bool)"
      },
      {
        "astId": 2102,
        "contract": "contracts/DeDe.sol:DeDe",
        "label": "withdrawableBalance",
        "offset": 0,
        "slot": "9",
        "type": "t_mapping(t_address,t_uint256)"
      },
      {
        "astId": 2104,
        "contract": "contracts/DeDe.sol:DeDe",
        "label": "deliveryIndex",
        "offset": 0,
        "slot": "10",
        "type": "t_uint256"
      },
      {
        "astId": 2107,
        "contract": "contracts/DeDe.sol:DeDe",
        "label": "push",
        "offset": 0,
        "slot": "11",
        "type": "t_contract(IPUSHCommInterface)3187"
      },
      {
        "astId": 2116,
        "contract": "contracts/DeDe.sol:DeDe",
        "label": "REQUESTED_SCHEMA",
        "offset": 0,
        "slot": "12",
        "type": "t_bytes32"
      },
      {
        "astId": 2118,
        "contract": "contracts/DeDe.sol:DeDe",
        "label": "PICKED_UP_SCHEMA",
        "offset": 0,
        "slot": "13",
        "type": "t_bytes32"
      },
      {
        "astId": 2120,
        "contract": "contracts/DeDe.sol:DeDe",
        "label": "DELIVERED_SCHEMA",
        "offset": 0,
        "slot": "14",
        "type": "t_bytes32"
      },
      {
        "astId": 2122,
        "contract": "contracts/DeDe.sol:DeDe",
        "label": "DISPUTED_SCHEMA",
        "offset": 0,
        "slot": "15",
        "type": "t_bytes32"
      },
      {
        "astId": 2124,
        "contract": "contracts/DeDe.sol:DeDe",
        "label": "COMPLETED_SCHEMA",
        "offset": 0,
        "slot": "16",
        "type": "t_bytes32"
      }
    ],
    "types": {
      "t_address": {
        "encoding": "inplace",
        "label": "address",
        "numberOfBytes": "20"
      },
      "t_bool": {
        "encoding": "inplace",
        "label": "bool",
        "numberOfBytes": "1"
      },
      "t_bytes32": {
        "encoding": "inplace",
        "label": "bytes32",
        "numberOfBytes": "32"
      },
      "t_contract(IEAS)356": {
        "encoding": "inplace",
        "label": "contract IEAS",
        "numberOfBytes": "20"
      },
      "t_contract(IPUSHCommInterface)3187": {
        "encoding": "inplace",
        "label": "contract IPUSHCommInterface",
        "numberOfBytes": "20"
      },
      "t_enum(ShipmentState)2113": {
        "encoding": "inplace",
        "label": "enum DeDe.ShipmentState",
        "numberOfBytes": "1"
      },
      "t_mapping(t_address,t_uint256)": {
        "encoding": "mapping",
        "key": "t_address",
        "label": "mapping(address => uint256)",
        "numberOfBytes": "32",
        "value": "t_uint256"
      },
      "t_mapping(t_uint256,t_bool)": {
        "encoding": "mapping",
        "key": "t_uint256",
        "label": "mapping(uint256 => bool)",
        "numberOfBytes": "32",
        "value": "t_bool"
      },
      "t_mapping(t_uint256,t_struct(Shipment)2182_storage)": {
        "encoding": "mapping",
        "key": "t_uint256",
        "label": "mapping(uint256 => struct DeDe.Shipment)",
        "numberOfBytes": "32",
        "value": "t_struct(Shipment)2182_storage"
      },
      "t_string_storage": {
        "encoding": "bytes",
        "label": "string",
        "numberOfBytes": "32"
      },
      "t_struct(Shipment)2182_storage": {
        "encoding": "inplace",
        "label": "struct DeDe.Shipment",
        "members": [
          {
            "astId": 2166,
            "contract": "contracts/DeDe.sol:DeDe",
            "label": "id",
            "offset": 0,
            "slot": "0",
            "type": "t_uint256"
          },
          {
            "astId": 2169,
            "contract": "contracts/DeDe.sol:DeDe",
            "label": "state",
            "offset": 0,
            "slot": "1",
            "type": "t_enum(ShipmentState)2113"
          },
          {
            "astId": 2171,
            "contract": "contracts/DeDe.sol:DeDe",
            "label": "bounty",
            "offset": 0,
            "slot": "2",
            "type": "t_uint256"
          },
          {
            "astId": 2173,
            "contract": "contracts/DeDe.sol:DeDe",
            "label": "settlementDeadline",
            "offset": 0,
            "slot": "3",
            "type": "t_uint256"
          },
          {
            "astId": 2175,
            "contract": "contracts/DeDe.sol:DeDe",
            "label": "courier",
            "offset": 0,
            "slot": "4",
            "type": "t_address"
          },
          {
            "astId": 2177,
            "contract": "contracts/DeDe.sol:DeDe",
            "label": "sender",
            "offset": 0,
            "slot": "5",
            "type": "t_address"
          },
          {
            "astId": 2179,
            "contract": "contracts/DeDe.sol:DeDe",
            "label": "receiver",
            "offset": 0,
            "slot": "6",
            "type": "t_address"
          },
          {
            "astId": 2181,
            "contract": "contracts/DeDe.sol:DeDe",
            "label": "valid",
            "offset": 20,
            "slot": "6",
            "type": "t_bool"
          }
        ],
        "numberOfBytes": "224"
      },
      "t_uint256": {
        "encoding": "inplace",
        "label": "uint256",
        "numberOfBytes": "32"
      }
    }
  }
}